:100000000C9472000C9493000C9493000C94930045
:100010000C9493000C9493000C9493000C94930014
:100020000C9493000C9493000C9493000C94930004
:100030000C9493000C9493000C9493000C949300F4
:100040000C9493000C9493000C9493000C949300E4
:100050000C9493000C9493000C9493000C949300D4
:100060000C9493000C9493000C9493000C949300C4
:100070000C9493000C9493000C9493000C949300B4
:100080000C9493000C9493000C9493000C949300A4
:100090000C9493000C9493000C9493000C94930094
:1000A0000C9493000C9493000C9493000C94930084
:1000B0000C9493000C9493000C9493000C94930074
:1000C0000C9493000C9493000C9493000C94930064
:1000D0000C9493000C9493000C9493000C94930054
:1000E0000C94930011241FBECFEFD1E2DEBFCDBF31
:1000F00000E00CBF12E0A0E0B2E0E4E2FAE000E0D1
:100100000BBF02C007900D92AC30B107D9F722E0C7
:10011000ACE0B2E001C01D92A033B207E1F70E944B
:10012000DB000C9410050C940000EAE7F0E08081FD
:1001300080628083808186608083ABE7B0E08C91B1
:10014000887F8C93ACE7B0E08C9180648C93808145
:10015000806880838081806480838C91807E8C9392
:100160000895D901ECE7F0E09081907E9083908132
:10017000892B808330917800832F90E09093200228
:1001800080931F028091790090E0909322028093E7
:100190002102FB01308380912102FA01808380E0FB
:1001A0009091210220911F0230912002820F931F13
:1001B0008D939C9308950E94EB010E9495000E94EC
:1001C0003701FDCF23E132E050E040E070E060E035
:1001D00080E00E94B10025E132E050E040E070E0B4
:1001E00060E081E00E94B10027E132E050E040E0B1
:1001F00070E060E082E00C94B1000F931F93CF9306
:10020000DF930E94E20003E112E0E0E0F2E0ADE003
:10021000B2E025E232E0E801899199918E01AF01C7
:10022000608171818617970710F4918380836D91A7
:100230007C9111976817790718F411969C938E9307
:1002400032968D919D91EA0148815981840F951FC5
:1002500096958795E901899399939E01D2E009319A
:100260001D07C9F6DF91CF911F910F9108958091DD
:1002700006020E94F00180930702823161F138F496
:10028000803179F0E0F4882309F457C0089584316F
:10029000D1F168F1853109F442C0873309F44BC0CC
:1002A000089530E020E050E040E06FE272E080E04E
:1002B0000E94B10080912F0280930602089530E0E1
:1002C00020E049E152E070E060E080E00E94B1008F
:1002D00080911902F1CF30E020E050E040E06DE184
:1002E00072E081E00E94B10080911D02E5CF30E014
:1002F00020E04AE152E070E060E081E00E94B1005D
:1003000080911A02D9CF30E020E050E040E06EE169
:1003100072E082E00E94B10080911E02CDCF30E0F9
:1003200020E04BE152E070E060E082E00E94B1002A
:1003300080911B02C1CF0E94FD008FEFBDCFCF93F4
:10034000DF930E94E200A3E1B2E0C5E2D2E0ECE27A
:10035000F2E089E192E021E06D917D91499159911E
:1003600046175707C8F4208331968A179B07A1F7D1
:1003700080912E02282F30E0220F331F80912D0212
:10038000820F932F911D880F90912C02890F8093DB
:100390000C02DF91CF9108951082E6CF0E949F0159
:1003A00080910C02833089F028F4882341F0823058
:1003B00051F00895863059F0873059F008958DE254
:1003C00080932B02089589E4FBCF82E5F9CF8CE47A
:1003D000F7CF8BE2F5CF88E084B980E48CBD089537
:1003E0008EBD0DB407FEFDCF8EB508951092C500E9
:1003F00087E68093C40088E18093C10086E0809303
:10040000C20008958091C00087FFFCCF8091C60094
:1004100008959091C00095FFFCCF8093C600089589
:10042000CF93DF93EC018991811103C0DF91CF91CC
:1004300008950E940902F7CF0F931F93CF93DF9384
:10044000CDB7DEB764970FB6F894DEBF0FBECDBF51
:100450009F938F9388E092E09F938F938E010F5F1D
:100460001F4F1F930F930E944902C8010E94100260
:100470000F900F900F900F900F900F9064960FB603
:10048000F894DEBF0FBECDBFDF91CF911F910F91CA
:1004900008950F931F93CF93DF93CDB7DEB72E97B9
:1004A0000FB6F894DEBF0FBECDBF0E891F8986E060
:1004B0008C831A8309838FEF9FE79E838D83AE0120
:1004C000465E5F4F688D798DCE0101960E9479025C
:1004D0002F813885020F131FF80110822E960FB658
:1004E000F894DEBF0FBECDBFDF91CF911F910F916A
:1004F00008952F923F924F925F926F927F928F92C8
:100500009F92AF92BF92CF92DF92EF92FF920F93A2
:100510001F93CF93DF9300D000D000D00F920F92A3
:10052000CDB7DEB77C013B018A01FC011782168240
:10053000838181FFCEC19AE0292ECE0101965C0114
:10054000F7019381F30193FD859193FF81913F0121
:10055000882309F446C1853239F493FD859193FFD0
:1005600081913F01853229F4B70190E00E94820415
:10057000E7CF912C412C512CFFE1F51538F08B324F
:1005800009F188F4803201F1833221F157FC3AC03D
:1005900020ED280F2A3040F556FE1FC0929C200DFA
:1005A0001124922E06C08D3291F0803379F7689431
:1005B00050F8F30193FD859193FF81913F018111E3
:1005C000DBCF20C0689451F8689452F8F2CF689459
:1005D00053F8EFCF689454F8ECCF429C200D1124CF
:1005E000422E689455F8E5CF8E3229F456FCF9C0B6
:1005F000689456F8DECF8C3619F4689457F8D9CF42
:100600008836B9F2982F9F7D95549330C0F0833689
:10061000A1F18337C1F1833509F05BC0F801C190C6
:10062000D1908F01692D70E056FC02C06FEF7FEF13
:10063000C6010E946C044C01689457F80AC00C5F14
:100640001F4F2FE3298388248394912C6501E8941C
:1006500057F853FC04C04814190409F018F5342C59
:100660008114910431F5332009F46ACFB70180E297
:1006700090E00E9482043A94F6CFF8018081898349
:100680000E5F1F4FE0CFF801C190D1908F01692D0F
:1006900070E056FC02C06FEF7FEFC6010E94770446
:1006A0004C01D5CFB70180E290E00E9482044A94C9
:1006B000D2CFF60157FC859157FE81916F01B701AA
:1006C00090E00E94820431103A94F1E08F1A910870
:1006D000C7CF843619F0893609F074C0F80157FE87
:1006E0006AC061917191819191918F01252D2F7631
:1006F000D22E97FF09C090958095709561957F4F98
:100700008F4F9F4F6894D7F82AE030E0A5010E94F0
:10071000B204C82ECA188C2C5D2CD6FE0CC0E894EE
:1007200050F8C91440F4D4FE05C0D2FC03C0FD2D1E
:10073000FE7E5F2E892C54FEA4C0FE01EC0DF11D3F
:100740008081803309F096C0252D297E522E852D7B
:100750008870382E53FCA4C050FE9EC09C2C84147C
:1007600018F44C0C942C981854FEA0C0B70180E3E8
:1007700090E00E94820452FE09C088E790E051FE9A
:1007800002C088E590E0B7010E948204C91408F411
:1007900099C0CA94D12C9FEFC91AD90ACA0CDB1C84
:1007A000F60182916F01B70190E00E948204AC14BF
:1007B000BD04B1F758CF61917191072E000C880BE1
:1007C000990B93CFD52CE894D4F82AE030E0853704
:1007D000E1F1952D997FD92E8F36A9F1F0F4883566
:1007E00051F1F701868197812B960FB6F894DEBF01
:1007F0000FBECDBFDF91CF911F910F91FF90EF9072
:10080000DF90CF90BF90AF909F908F907F906F9030
:100810005F904F903F902F900895803749F0883730
:1008200001F7D4FE02C06894D2F820E130E00DC098
:100830006894D4F8F6CF54FE03C0E92FE660DE2EAC
:1008400020E132E002C028E030E0F801D7FE0DC020
:1008500061917191819191918F01A5010E94B204E2
:10086000C82ECA18E894D7F856CF6191719190E0DC
:1008700080E0F2CF52FC02C0839469CF83948394CA
:1008800066CF852D867809F462CFF6CFB70180E276
:1008900090E00E94820483948414C0F3312C64CFCE
:1008A000342C3818841408F45FCFF8CF852D86785F
:1008B00009F46CCF8BE251FE80E257FC8DE2B70168
:1008C00090E062CFB70180E390E00E9482049A94A6
:1008D0005DCF8FEF9FEF88CFFC0105906150704096
:1008E0000110D8F7809590958E0F9F1F0895FC01F9
:1008F0006150704001900110D8F7809590958E0F4F
:100900009F1F08950F931F93CF93DF93182F092FE5
:10091000EB018B8181FD09C01FEF0FEF812F902F1D
:10092000DF91CF911F910F91089582FF14C02E8106
:100930003F818C819D81281739073CF4E881F9813A
:10094000CF0101969983888310838E819F810196C0
:100950009F838E83E3CFE885F985812F1995892BB5
:10096000A1F3DACFFA01AA27283051F1203181F121
:10097000E8946F936E7F6E5F7F4F8F4F9F4FAF4FA7
:10098000B1E03ED0B4E03CD0670F781F891F9A1FBA
:10099000A11D680F791F8A1F911DA11D6A0F711D6E
:1009A000811D911DA11D20D009F468943F912AE07A
:1009B000269F11243019305D3193DEF6CF01089562
:1009C000462F4770405D4193B3E00FD0C9F7F6CF93
:1009D000462F4F70405D4A3318F0495D31FD40525B
:1009E000419302D0A9F7EACFB4E0A69597958795F1
:1009F00077956795BA95C9F70097610571050895D0
:100A00009B01AC010A2E069457954795379527957B
:100A1000BA95C9F7620F731F841F951FA01D089513
:040A2000F894FFCF78
:0C0A2400000400040004304225640000BF
:00000001FF
